{
  "contractName": "PatientContract",
  "abi": [
    {
      "constant": true,
      "inputs": [
        {
          "name": "_patient",
          "type": "address"
        },
        {
          "name": "_doctor",
          "type": "address"
        },
        {
          "name": "record",
          "type": "string"
        }
      ],
      "name": "addRecord",
      "outputs": [],
      "payable": false,
      "stateMutability": "view",
      "type": "function"
    },
    {
      "constant": true,
      "inputs": [],
      "name": "getAllRecords",
      "outputs": [],
      "payable": false,
      "stateMutability": "view",
      "type": "function"
    },
    {
      "constant": true,
      "inputs": [
        {
          "name": "fileRef",
          "type": "string"
        }
      ],
      "name": "uploadPastRecord",
      "outputs": [],
      "payable": false,
      "stateMutability": "view",
      "type": "function"
    },
    {
      "constant": false,
      "inputs": [
        {
          "name": "_name",
          "type": "string"
        },
        {
          "name": "_age",
          "type": "uint256"
        },
        {
          "name": "_home_address",
          "type": "string"
        },
        {
          "name": "_phone_number",
          "type": "string"
        }
      ],
      "name": "signUp",
      "outputs": [],
      "payable": false,
      "stateMutability": "nonpayable",
      "type": "function"
    },
    {
      "constant": true,
      "inputs": [],
      "name": "getPatientInfo",
      "outputs": [
        {
          "name": "",
          "type": "string"
        },
        {
          "name": "",
          "type": "uint256"
        },
        {
          "name": "",
          "type": "string"
        },
        {
          "name": "",
          "type": "string"
        }
      ],
      "payable": false,
      "stateMutability": "view",
      "type": "function"
    }
  ],
  "bytecode": "0x608060405234801561001057600080fd5b50610d3b806100206000396000f3fe60806040526004361061006d576000357c0100000000000000000000000000000000000000000000000000000000900463ffffffff168063326df66414610072578063358f325a146101e157806399326e39146103e1578063a7f9fe72146104a9578063cc63f466146104c0575b600080fd5b34801561007e57600080fd5b506100876105c8565b60405180806020018581526020018060200180602001848103845288818151815260200191508051906020019080838360005b838110156100d55780820151818401526020810190506100ba565b50505050905090810190601f1680156101025780820380516001836020036101000a031916815260200191505b50848103835286818151815260200191508051906020019080838360005b8381101561013b578082015181840152602081019050610120565b50505050905090810190601f1680156101685780820380516001836020036101000a031916815260200191505b50848103825285818151815260200191508051906020019080838360005b838110156101a1578082015181840152602081019050610186565b50505050905090810190601f1680156101ce5780820380516001836020036101000a031916815260200191505b5097505050505050505060405180910390f35b3480156101ed57600080fd5b506103df6004803603608081101561020457600080fd5b810190808035906020019064010000000081111561022157600080fd5b82018360208201111561023357600080fd5b8035906020019184600183028401116401000000008311171561025557600080fd5b91908080601f016020809104026020016040519081016040528093929190818152602001838380828437600081840152601f19601f82011690508083019250505050505050919291929080359060200190929190803590602001906401000000008111156102c257600080fd5b8201836020820111156102d457600080fd5b803590602001918460018302840111640100000000831117156102f657600080fd5b91908080601f016020809104026020016040519081016040528093929190818152602001838380828437600081840152601f19601f8201169050808301925050505050505091929192908035906020019064010000000081111561035957600080fd5b82018360208201111561036b57600080fd5b8035906020019184600183028401116401000000008311171561038d57600080fd5b91908080601f016020809104026020016040519081016040528093929190818152602001838380828437600081840152601f19601f820116905080830192505050505050509192919290505050610925565b005b3480156103ed57600080fd5b506104a76004803603602081101561040457600080fd5b810190808035906020019064010000000081111561042157600080fd5b82018360208201111561043357600080fd5b8035906020019184600183028401116401000000008311171561045557600080fd5b91908080601f016020809104026020016040519081016040528093929190818152602001838380828437600081840152601f19601f820116905080830192505050505050509192919290505050610aa5565b005b3480156104b557600080fd5b506104be610aa8565b005b3480156104cc57600080fd5b506105c6600480360360608110156104e357600080fd5b81019080803573ffffffffffffffffffffffffffffffffffffffff169060200190929190803573ffffffffffffffffffffffffffffffffffffffff1690602001909291908035906020019064010000000081111561054057600080fd5b82018360208201111561055257600080fd5b8035906020019184600183028401116401000000008311171561057457600080fd5b91908080601f016020809104026020016040519081016040528093929190818152602001838380828437600081840152601f19601f820116905080830192505050505050509192919290505050610aaa565b005b60606000606080336105d8610b50565b6000803373ffffffffffffffffffffffffffffffffffffffff1673ffffffffffffffffffffffffffffffffffffffff16815260200190815260200160002060c06040519081016040529081600082018054600181600116156101000203166002900480601f0160208091040260200160405190810160405280929190818152602001828054600181600116156101000203166002900480156106bb5780601f10610690576101008083540402835291602001916106bb565b820191906000526020600020905b81548152906001019060200180831161069e57829003601f168201915b505050505081526020016001820160009054906101000a900473ffffffffffffffffffffffffffffffffffffffff1673ffffffffffffffffffffffffffffffffffffffff1673ffffffffffffffffffffffffffffffffffffffff16815260200160028201548152602001600382018054600181600116156101000203166002900480601f0160208091040260200160405190810160405280929190818152602001828054600181600116156101000203166002900480156107bd5780601f10610792576101008083540402835291602001916107bd565b820191906000526020600020905b8154815290600101906020018083116107a057829003601f168201915b50505050508152602001600482018054600181600116156101000203166002900480601f01602080910402602001604051908101604052809291908181526020018280546001816001161561010002031660029004801561085f5780601f106108345761010080835404028352916020019161085f565b820191906000526020600020905b81548152906001019060200180831161084257829003601f168201915b50505050508152602001600682018054806020026020016040519081016040528092919081815260200182805480156108ed57602002820191906000526020600020905b8160009054906101000a900473ffffffffffffffffffffffffffffffffffffffff1673ffffffffffffffffffffffffffffffffffffffff16815260200190600101908083116108a3575b505050505081525050905080600001518160400151826060015183608001518393508191508090509550955095509550505090919293565b60c0604051908101604052808581526020013373ffffffffffffffffffffffffffffffffffffffff16815260200184815260200183815260200182815260200160006040519080825280602002602001820160405280156109955781602001602082028038833980820191505090505b508152506000803373ffffffffffffffffffffffffffffffffffffffff1673ffffffffffffffffffffffffffffffffffffffff16815260200190815260200160002060008201518160000190805190602001906109f3929190610b9d565b5060208201518160010160006101000a81548173ffffffffffffffffffffffffffffffffffffffff021916908373ffffffffffffffffffffffffffffffffffffffff160217905550604082015181600201556060820151816003019080519060200190610a61929190610b9d565b506080820151816004019080519060200190610a7e929190610b9d565b5060a0820151816006019080519060200190610a9b929190610c1d565b5090505050505050565b50565b565b818360008060008373ffffffffffffffffffffffffffffffffffffffff1673ffffffffffffffffffffffffffffffffffffffff16815260200190815260200160002090508060050160008473ffffffffffffffffffffffffffffffffffffffff1673ffffffffffffffffffffffffffffffffffffffff16815260200190815260200160002060009054906101000a900460ff161515610b4857600080fd5b505050505050565b60c06040519081016040528060608152602001600073ffffffffffffffffffffffffffffffffffffffff168152602001600081526020016060815260200160608152602001606081525090565b828054600181600116156101000203166002900490600052602060002090601f016020900481019282601f10610bde57805160ff1916838001178555610c0c565b82800160010185558215610c0c579182015b82811115610c0b578251825591602001919060010190610bf0565b5b509050610c199190610ca7565b5090565b828054828255906000526020600020908101928215610c96579160200282015b82811115610c955782518260006101000a81548173ffffffffffffffffffffffffffffffffffffffff021916908373ffffffffffffffffffffffffffffffffffffffff16021790555091602001919060010190610c3d565b5b509050610ca39190610ccc565b5090565b610cc991905b80821115610cc5576000816000905550600101610cad565b5090565b90565b610d0c91905b80821115610d0857600081816101000a81549073ffffffffffffffffffffffffffffffffffffffff021916905550600101610cd2565b5090565b9056fea165627a7a72305820b5912708539d3cd42b366ba3a336fc7626109b94fcad781472e2dc86ef36d5190029",
  "source": "pragma solidity >=0.4.22 <0.7.0;\r\ncontract PatientContract {\r\n    // mapping (address => bool) patientKeDoctor;\r\n    mapping(address => Patient) internal patients;\r\n    struct Patient {\r\n        string name;\r\n        address id;\r\n        uint256 age;\r\n        string home_address;\r\n        string phone_number;\r\n        // address[] doctors;\r\n        mapping(address => bool) doctors;\r\n        address[] prescriptions;\r\n    }\r\n    modifier isPatientKaDoctor(address doctorId, address patientId) {\r\n        Patient storage p = patients[patientId];\r\n        require(p.doctors[doctorId]);\r\n        _;\r\n    }\r\n    modifier isPatient(address patientId) {\r\n        // require(patients[patientId]);\r\n        _;\r\n    }\r\n    function addRecord(address _patient, address _doctor, string memory record)\r\n        public\r\n        view\r\n        isPatientKaDoctor(_doctor, _patient)\r\n    // returns (address)\r\n    {\r\n\r\n        // return ;\r\n    }\r\n    function getAllRecords() public view {}\r\n    function uploadPastRecord(string memory fileRef) public view {}\r\n    function signUp(\r\n        string memory _name,\r\n        uint256 _age,\r\n        string memory _home_address,\r\n        string memory _phone_number\r\n    ) public {\r\n        // require(_name!=\"\");\r\n        // require(_age!=0);\r\n        // require(_home_address!=\"\");\r\n        // require(_phone_number!=\"\");\r\n        patients[msg.sender] = Patient({\r\n            name: _name,\r\n            age: _age,\r\n            id: msg.sender,\r\n            home_address: _home_address,\r\n            phone_number: _phone_number,\r\n            prescriptions: new address[](0)\r\n        });\r\n    }\r\n    function getPatientInfo()\r\n        public\r\n        view\r\n        isPatient(msg.sender)\r\n        returns (string memory, uint256, string memory, string memory)\r\n    {\r\n        Patient memory p = patients[msg.sender];\r\n        return (p.name, p.age, p.home_address, p.phone_number);\r\n    }\r\n\r\n}\r\n",
  "sourcePath": "d:/Downloads/digital_healthcare-master/tsec/contracts/Patient.sol",
  "compiler": {
    "name": "solc",
    "version": "0.5.0+commit.1d4f565a.Emscripten.clang"
  },
  "schemaVersion": "3.0.2",
  "updatedAt": "2020-02-05T10:35:20.287Z",
  "devdoc": {
    "methods": {}
  },
  "userdoc": {
    "methods": {}
  }
}